{
  "contractName": "Sprout",
  "abi": [
    {
      "anonymous": false,
      "inputs": [
        {
          "indexed": false,
          "internalType": "uint256",
          "name": "x_id",
          "type": "uint256"
        },
        {
          "indexed": false,
          "internalType": "uint256",
          "name": "y_id",
          "type": "uint256"
        },
        {
          "indexed": false,
          "internalType": "uint256",
          "name": "dna1",
          "type": "uint256"
        },
        {
          "indexed": false,
          "internalType": "uint256",
          "name": "dna2",
          "type": "uint256"
        }
      ],
      "name": "OnAdd",
      "type": "event"
    },
    {
      "anonymous": false,
      "inputs": [
        {
          "indexed": false,
          "internalType": "uint256",
          "name": "Id",
          "type": "uint256"
        }
      ],
      "name": "OnItemAdded",
      "type": "event"
    },
    {
      "anonymous": false,
      "inputs": [
        {
          "indexed": false,
          "internalType": "uint256",
          "name": "Id",
          "type": "uint256"
        }
      ],
      "name": "OnItemDeleted",
      "type": "event"
    },
    {
      "anonymous": false,
      "inputs": [
        {
          "indexed": false,
          "internalType": "uint256",
          "name": "x_id",
          "type": "uint256"
        },
        {
          "indexed": false,
          "internalType": "uint256",
          "name": "y_id",
          "type": "uint256"
        }
      ],
      "name": "OnPlug",
      "type": "event"
    },
    {
      "anonymous": false,
      "inputs": [
        {
          "indexed": false,
          "internalType": "address",
          "name": "account",
          "type": "address"
        }
      ],
      "name": "OnRegister",
      "type": "event"
    },
    {
      "anonymous": false,
      "inputs": [
        {
          "indexed": true,
          "internalType": "address",
          "name": "previousOwner",
          "type": "address"
        },
        {
          "indexed": true,
          "internalType": "address",
          "name": "newOwner",
          "type": "address"
        }
      ],
      "name": "OwnershipTransferred",
      "type": "event"
    },
    {
      "anonymous": false,
      "inputs": [
        {
          "indexed": false,
          "internalType": "uint256",
          "name": "s",
          "type": "uint256"
        }
      ],
      "name": "debugStage",
      "type": "event"
    },
    {
      "constant": true,
      "inputs": [],
      "name": "isOwner",
      "outputs": [
        {
          "internalType": "bool",
          "name": "",
          "type": "bool"
        }
      ],
      "payable": false,
      "stateMutability": "view",
      "type": "function"
    },
    {
      "constant": true,
      "inputs": [],
      "name": "owner",
      "outputs": [
        {
          "internalType": "address",
          "name": "",
          "type": "address"
        }
      ],
      "payable": false,
      "stateMutability": "view",
      "type": "function"
    },
    {
      "constant": false,
      "inputs": [],
      "name": "renounceOwnership",
      "outputs": [],
      "payable": false,
      "stateMutability": "nonpayable",
      "type": "function"
    },
    {
      "constant": false,
      "inputs": [
        {
          "internalType": "address",
          "name": "newOwner",
          "type": "address"
        }
      ],
      "name": "transferOwnership",
      "outputs": [],
      "payable": false,
      "stateMutability": "nonpayable",
      "type": "function"
    },
    {
      "constant": true,
      "inputs": [
        {
          "internalType": "uint256",
          "name": "x_id",
          "type": "uint256"
        },
        {
          "internalType": "uint256",
          "name": "y_id",
          "type": "uint256"
        }
      ],
      "name": "getFullGrownTime",
      "outputs": [
        {
          "internalType": "uint256",
          "name": "",
          "type": "uint256"
        }
      ],
      "payable": false,
      "stateMutability": "view",
      "type": "function"
    },
    {
      "constant": true,
      "inputs": [
        {
          "internalType": "uint256",
          "name": "x_id",
          "type": "uint256"
        },
        {
          "internalType": "uint256",
          "name": "y_id",
          "type": "uint256"
        },
        {
          "internalType": "uint256",
          "name": "time",
          "type": "uint256"
        }
      ],
      "name": "getGrownTime",
      "outputs": [
        {
          "internalType": "uint256",
          "name": "",
          "type": "uint256"
        }
      ],
      "payable": false,
      "stateMutability": "view",
      "type": "function"
    },
    {
      "constant": true,
      "inputs": [
        {
          "internalType": "uint256",
          "name": "x_id",
          "type": "uint256"
        },
        {
          "internalType": "uint256",
          "name": "y_id",
          "type": "uint256"
        }
      ],
      "name": "getProduceGene",
      "outputs": [
        {
          "internalType": "uint256",
          "name": "",
          "type": "uint256"
        }
      ],
      "payable": false,
      "stateMutability": "view",
      "type": "function"
    },
    {
      "constant": true,
      "inputs": [
        {
          "internalType": "uint256",
          "name": "x_id",
          "type": "uint256"
        },
        {
          "internalType": "uint256",
          "name": "y_id",
          "type": "uint256"
        }
      ],
      "name": "getSeedPlug",
      "outputs": [
        {
          "internalType": "bool",
          "name": "",
          "type": "bool"
        }
      ],
      "payable": false,
      "stateMutability": "view",
      "type": "function"
    },
    {
      "constant": true,
      "inputs": [
        {
          "internalType": "uint256",
          "name": "x_id",
          "type": "uint256"
        },
        {
          "internalType": "uint256",
          "name": "y_id",
          "type": "uint256"
        }
      ],
      "name": "getSeedRound",
      "outputs": [
        {
          "internalType": "bool",
          "name": "",
          "type": "bool"
        }
      ],
      "payable": false,
      "stateMutability": "view",
      "type": "function"
    },
    {
      "constant": true,
      "inputs": [
        {
          "internalType": "uint256",
          "name": "x_id",
          "type": "uint256"
        },
        {
          "internalType": "uint256",
          "name": "y_id",
          "type": "uint256"
        }
      ],
      "name": "getSeedYellow",
      "outputs": [
        {
          "internalType": "bool",
          "name": "",
          "type": "bool"
        }
      ],
      "payable": false,
      "stateMutability": "view",
      "type": "function"
    },
    {
      "constant": true,
      "inputs": [
        {
          "internalType": "uint256",
          "name": "x_id",
          "type": "uint256"
        },
        {
          "internalType": "uint256",
          "name": "y_id",
          "type": "uint256"
        }
      ],
      "name": "getColor",
      "outputs": [
        {
          "internalType": "uint256",
          "name": "",
          "type": "uint256"
        }
      ],
      "payable": false,
      "stateMutability": "view",
      "type": "function"
    },
    {
      "constant": true,
      "inputs": [
        {
          "internalType": "uint256",
          "name": "x_id",
          "type": "uint256"
        },
        {
          "internalType": "uint256",
          "name": "y_id",
          "type": "uint256"
        },
        {
          "internalType": "uint256",
          "name": "time",
          "type": "uint256"
        }
      ],
      "name": "getSproutHeight",
      "outputs": [
        {
          "internalType": "uint256",
          "name": "",
          "type": "uint256"
        }
      ],
      "payable": false,
      "stateMutability": "view",
      "type": "function"
    },
    {
      "constant": true,
      "inputs": [
        {
          "internalType": "uint256",
          "name": "x_id",
          "type": "uint256"
        },
        {
          "internalType": "uint256",
          "name": "y_id",
          "type": "uint256"
        },
        {
          "internalType": "uint256",
          "name": "time",
          "type": "uint256"
        }
      ],
      "name": "getSproutWidth",
      "outputs": [
        {
          "internalType": "uint256",
          "name": "",
          "type": "uint256"
        }
      ],
      "payable": false,
      "stateMutability": "view",
      "type": "function"
    },
    {
      "constant": true,
      "inputs": [
        {
          "internalType": "uint256",
          "name": "now_stage",
          "type": "uint256"
        },
        {
          "internalType": "uint256",
          "name": "fullgrown_time",
          "type": "uint256"
        },
        {
          "internalType": "uint256",
          "name": "height",
          "type": "uint256"
        },
        {
          "internalType": "uint256",
          "name": "width",
          "type": "uint256"
        },
        {
          "internalType": "uint256",
          "name": "x_id",
          "type": "uint256"
        },
        {
          "internalType": "uint256",
          "name": "y_id",
          "type": "uint256"
        }
      ],
      "name": "getSproutPrice",
      "outputs": [
        {
          "internalType": "uint256",
          "name": "",
          "type": "uint256"
        }
      ],
      "payable": false,
      "stateMutability": "view",
      "type": "function"
    },
    {
      "constant": false,
      "inputs": [
        {
          "internalType": "uint256",
          "name": "x_id",
          "type": "uint256"
        },
        {
          "internalType": "uint256",
          "name": "y_id",
          "type": "uint256"
        },
        {
          "internalType": "uint256",
          "name": "dna1",
          "type": "uint256"
        },
        {
          "internalType": "uint256",
          "name": "dna2",
          "type": "uint256"
        }
      ],
      "name": "addSprout1",
      "outputs": [],
      "payable": false,
      "stateMutability": "nonpayable",
      "type": "function"
    },
    {
      "constant": false,
      "inputs": [
        {
          "internalType": "uint256",
          "name": "x_id",
          "type": "uint256"
        },
        {
          "internalType": "uint256",
          "name": "y_id",
          "type": "uint256"
        },
        {
          "internalType": "uint256",
          "name": "time",
          "type": "uint256"
        }
      ],
      "name": "addSprout2",
      "outputs": [],
      "payable": false,
      "stateMutability": "nonpayable",
      "type": "function"
    },
    {
      "constant": false,
      "inputs": [
        {
          "internalType": "uint256",
          "name": "x_id",
          "type": "uint256"
        },
        {
          "internalType": "uint256",
          "name": "y_id",
          "type": "uint256"
        },
        {
          "internalType": "uint256",
          "name": "dna1",
          "type": "uint256"
        },
        {
          "internalType": "uint256",
          "name": "dna2",
          "type": "uint256"
        }
      ],
      "name": "addSprout3",
      "outputs": [],
      "payable": false,
      "stateMutability": "nonpayable",
      "type": "function"
    },
    {
      "constant": false,
      "inputs": [
        {
          "internalType": "uint256",
          "name": "x_id",
          "type": "uint256"
        },
        {
          "internalType": "uint256",
          "name": "y_id",
          "type": "uint256"
        },
        {
          "internalType": "uint256",
          "name": "dna1",
          "type": "uint256"
        },
        {
          "internalType": "uint256",
          "name": "dna2",
          "type": "uint256"
        }
      ],
      "name": "addSprout4plantSeed",
      "outputs": [],
      "payable": false,
      "stateMutability": "nonpayable",
      "type": "function"
    },
    {
      "constant": false,
      "inputs": [
        {
          "internalType": "uint256",
          "name": "x_id",
          "type": "uint256"
        },
        {
          "internalType": "uint256",
          "name": "y_id",
          "type": "uint256"
        },
        {
          "internalType": "uint256",
          "name": "price",
          "type": "uint256"
        }
      ],
      "name": "plugSprout",
      "outputs": [],
      "payable": false,
      "stateMutability": "nonpayable",
      "type": "function"
    },
    {
      "constant": true,
      "inputs": [
        {
          "internalType": "address",
          "name": "account",
          "type": "address"
        }
      ],
      "name": "balanceOf",
      "outputs": [
        {
          "internalType": "uint256",
          "name": "",
          "type": "uint256"
        }
      ],
      "payable": false,
      "stateMutability": "view",
      "type": "function"
    },
    {
      "constant": false,
      "inputs": [
        {
          "internalType": "address",
          "name": "account",
          "type": "address"
        },
        {
          "internalType": "uint256",
          "name": "amount",
          "type": "uint256"
        }
      ],
      "name": "transfer",
      "outputs": [],
      "payable": false,
      "stateMutability": "nonpayable",
      "type": "function"
    },
    {
      "constant": false,
      "inputs": [
        {
          "internalType": "address",
          "name": "new_player",
          "type": "address"
        }
      ],
      "name": "Register",
      "outputs": [],
      "payable": false,
      "stateMutability": "nonpayable",
      "type": "function"
    },
    {
      "constant": true,
      "inputs": [
        {
          "internalType": "uint256",
          "name": "_Id",
          "type": "uint256"
        }
      ],
      "name": "isItemValid",
      "outputs": [
        {
          "internalType": "bool",
          "name": "isValid",
          "type": "bool"
        }
      ],
      "payable": false,
      "stateMutability": "view",
      "type": "function"
    },
    {
      "constant": true,
      "inputs": [
        {
          "internalType": "uint256",
          "name": "_Id",
          "type": "uint256"
        }
      ],
      "name": "getItemNum",
      "outputs": [
        {
          "internalType": "uint256",
          "name": "",
          "type": "uint256"
        }
      ],
      "payable": false,
      "stateMutability": "view",
      "type": "function"
    },
    {
      "constant": true,
      "inputs": [
        {
          "internalType": "uint256",
          "name": "_Id",
          "type": "uint256"
        }
      ],
      "name": "getItem",
      "outputs": [
        {
          "internalType": "string",
          "name": "",
          "type": "string"
        },
        {
          "internalType": "uint256",
          "name": "",
          "type": "uint256"
        }
      ],
      "payable": false,
      "stateMutability": "view",
      "type": "function"
    },
    {
      "constant": true,
      "inputs": [],
      "name": "getItemList",
      "outputs": [
        {
          "internalType": "uint256[]",
          "name": "",
          "type": "uint256[]"
        },
        {
          "internalType": "uint256[]",
          "name": "",
          "type": "uint256[]"
        }
      ],
      "payable": false,
      "stateMutability": "view",
      "type": "function"
    }
  ],
  "bytecode": "0x6080604052336000806101000a81548173ffffffffffffffffffffffffffffffffffffffff021916908373ffffffffffffffffffffffffffffffffffffffff1602179055506000809054906101000a900473ffffffffffffffffffffffffffffffffffffffff1673ffffffffffffffffffffffffffffffffffffffff16600073ffffffffffffffffffffffffffffffffffffffff167f8be0079c531659141344cd1fd0a4f28419497f9722a3daafe3b4186f6b6457e060405160405180910390a361302a806100cf6000396000f3fe608060405234801561001057600080fd5b506004361061018e5760003560e01c80638da5cb5b116100de578063c94125ce11610097578063dbe9383211610071578063dbe93832146108b0578063eded5d9e146108f2578063eeda149c1461093e578063f2fde38b146109825761018e565b8063c94125ce146107c8578063d3b9907a1461081e578063da2c0269146108605761018e565b80638da5cb5b1461062a5780638ea014ba146106745780638f32d59b146106b65780639b7f9d4d146106d8578063a761e4e11461072e578063a9059cbb1461077a5761018e565b8063435184471161014b57806370a082311161012557806370a0823114610530578063715018a614610588578063816bfee61461059257806386087a68146105de5761018e565b8063435184471461044457806359ca683c1461049457806367963580146104e45761018e565b8063063b2e5b14610193578063186a576e1461023a5780631bd4f2b4146102865780631bebb180146102dc5780632639769f146103505780633129e77314610396575b600080fd5b61019b6109c6565b604051808060200180602001838103835285818151815260200191508051906020019060200280838360005b838110156101e25780820151818401526020810190506101c7565b50505050905001838103825284818151815260200191508051906020019060200280838360005b83811015610224578082015181840152602081019050610209565b5050505090500194505050505060405180910390f35b6102846004803603608081101561025057600080fd5b8101908080359060200190929190803590602001909291908035906020019092919080359060200190929190505050610b15565b005b6102c66004803603606081101561029c57600080fd5b81019080803590602001909291908035906020019092919080359060200190929190505050610ba4565b6040518082815260200191505060405180910390f35b61033a600480360360c08110156102f257600080fd5b81019080803590602001909291908035906020019092919080359060200190929190803590602001909291908035906020019092919080359060200190929190505050610d7f565b6040518082815260200191505060405180910390f35b61037c6004803603602081101561036657600080fd5b8101908080359060200190929190505050610f8a565b604051808215151515815260200191505060405180910390f35b6103c2600480360360208110156103ac57600080fd5b8101908080359060200190929190505050610ffc565b6040518080602001838152602001828103825284818151815260200191508051906020019080838360005b838110156104085780820151818401526020810190506103ed565b50505050905090810190601f1680156104355780820380516001836020036101000a031916815260200191505b50935050505060405180910390f35b61047a6004803603604081101561045a57600080fd5b8101908080359060200190929190803590602001909291905050506111d9565b604051808215151515815260200191505060405180910390f35b6104ca600480360360408110156104aa57600080fd5b81019080803590602001909291908035906020019092919050505061139a565b604051808215151515815260200191505060405180910390f35b61051a600480360360408110156104fa57600080fd5b810190808035906020019092919080359060200190929190505050611562565b6040518082815260200191505060405180910390f35b6105726004803603602081101561054657600080fd5b81019080803573ffffffffffffffffffffffffffffffffffffffff1690602001909291905050506116e8565b6040518082815260200191505060405180910390f35b610590611731565b005b6105c8600480360360408110156105a857600080fd5b810190808035906020019092919080359060200190929190505050611801565b6040518082815260200191505060405180910390f35b610628600480360360808110156105f457600080fd5b8101908080359060200190929190803590602001909291908035906020019092919080359060200190929190505050611a38565b005b610632611bdc565b604051808273ffffffffffffffffffffffffffffffffffffffff1673ffffffffffffffffffffffffffffffffffffffff16815260200191505060405180910390f35b6106b46004803603606081101561068a57600080fd5b81019080803590602001909291908035906020019092919080359060200190929190505050611c05565b005b6106be611cff565b604051808215151515815260200191505060405180910390f35b610718600480360360608110156106ee57600080fd5b81019080803590602001909291908035906020019092919080359060200190929190505050611d56565b6040518082815260200191505060405180910390f35b6107786004803603608081101561074457600080fd5b8101908080359060200190929190803590602001909291908035906020019092919080359060200190929190505050611f7d565b005b6107c66004803603604081101561079057600080fd5b81019080803573ffffffffffffffffffffffffffffffffffffffff1690602001909291908035906020019092919050505061208a565b005b610808600480360360608110156107de57600080fd5b81019080803590602001909291908035906020019092919080359060200190929190505050612113565b6040518082815260200191505060405180910390f35b61085e6004803603606081101561083457600080fd5b8101908080359060200190929190803590602001909291908035906020019092919050505061220e565b005b6108966004803603604081101561087657600080fd5b8101908080359060200190929190803590602001909291905050506124bf565b604051808215151515815260200191505060405180910390f35b6108dc600480360360208110156108c657600080fd5b8101908080359060200190929190505050612618565b6040518082815260200191505060405180910390f35b6109286004803603604081101561090857600080fd5b8101908080359060200190929190803590602001909291905050506126fa565b6040518082815260200191505060405180910390f35b6109806004803603602081101561095457600080fd5b81019080803573ffffffffffffffffffffffffffffffffffffffff16906020019092919050505061291d565b005b6109c46004803603602081101561099857600080fd5b81019080803573ffffffffffffffffffffffffffffffffffffffff1690602001909291905050506129da565b005b606080600060606109d56129f7565b8093508192505050606082604051908082528060200260200182016040528015610a0e5781602001602082028038833980820191505090505b509050606083604051908082528060200260200182016040528015610a425781602001602082028038833980820191505090505b50905060008090505b84811015610b06576000848281518110610a6157fe5b6020026020010151905080848381518110610a7857fe5b602002602001018181525050600560003373ffffffffffffffffffffffffffffffffffffffff1673ffffffffffffffffffffffffffffffffffffffff1681526020019081526020016000208181548110610ace57fe5b906000526020600020906004020160010154838381518110610aec57fe5b602002602001018181525050508080600101915050610a4b565b50818195509550505050509091565b604051806040016040528083815260200182815250600160003373ffffffffffffffffffffffffffffffffffffffff1673ffffffffffffffffffffffffffffffffffffffff1681526020019081526020016000208560058110610b7457fe5b600a02018460058110610b8357fe5b60020201600082015181600001556020820151816001015590505050505050565b60008383600260003373ffffffffffffffffffffffffffffffffffffffff1673ffffffffffffffffffffffffffffffffffffffff1681526020019081526020016000208260058110610bf257fe5b600f02018160058110610c0157fe5b6003020160020160009054906101000a900460ff16610c88576040517f08c379a000000000000000000000000000000000000000000000000000000000815260040180806020018281038252601d8152602001807f6c6f636174696f6e20646f6573206e6f742068617665207370726f757400000081525060200191505060405180910390fd5b6000610ca6610c978888612b10565b86612b7b90919063ffffffff16565b90506000610cb48888611562565b90506000610cc28989612b92565b905081831115610d2357610ce0601483612cdc90919063ffffffff16565b610cf38385612b7b90919063ffffffff16565b1015610d1757610d0d603c82612cf590919063ffffffff16565b9550505050610d76565b60009550505050610d76565b6000831415610d385760009550505050610d76565b610d7082610d6285610d54603c86612cf590919063ffffffff16565b612d1190919063ffffffff16565b612cdc90919063ffffffff16565b95505050505b50509392505050565b60008282600260003373ffffffffffffffffffffffffffffffffffffffff1673ffffffffffffffffffffffffffffffffffffffff1681526020019081526020016000208260058110610dcd57fe5b600f02018160058110610ddc57fe5b6003020160020160009054906101000a900460ff16610e63576040517f08c379a000000000000000000000000000000000000000000000000000000000815260040180806020018281038252601d8152602001807f6c6f636174696f6e20646f6573206e6f742068617665207370726f757400000081525060200191505060405180910390fd5b6000610e6f86866126fa565b90506000610e7d878761139a565b90506000610e8b88886111d9565b90508a8c1115610eda57610ea960148c612cdc90919063ffffffff16565b610ebc8c8e612b7b90919063ffffffff16565b1015610ece5760059550505050610f7e565b60009550505050610f7e565b60008c1415610eef5760029550505050610f7e565b6000610f3c610f1b6001610f0d600488612cdc90919063ffffffff16565b612cf590919063ffffffff16565b610f2e8c8e612d1190919063ffffffff16565b612cdc90919063ffffffff16565b90508115610f5a57610f58600582612cf590919063ffffffff16565b505b8215610f7657610f74600582612cf590919063ffffffff16565b505b809650505050505b50509695505050505050565b6000600560003373ffffffffffffffffffffffffffffffffffffffff1673ffffffffffffffffffffffffffffffffffffffff1681526020019081526020016000208281548110610fd657fe5b906000526020600020906004020160030160009054906101000a900460ff169050919050565b606060008261100a81610f8a565b61107c576040517f08c379a000000000000000000000000000000000000000000000000000000000815260040180806020018281038252601a8152602001807f6974656d206d7573742062652076616c696420746f2063616c6c00000000000081525060200191505060405180910390fd5b600560003373ffffffffffffffffffffffffffffffffffffffff1673ffffffffffffffffffffffffffffffffffffffff16815260200190815260200160002084815481106110c657fe5b9060005260206000209060040201600001600560003373ffffffffffffffffffffffffffffffffffffffff1673ffffffffffffffffffffffffffffffffffffffff168152602001908152602001600020858154811061112157fe5b906000526020600020906004020160010154818054600181600116156101000203166002900480601f0160208091040260200160405190810160405280929190818152602001828054600181600116156101000203166002900480156111c85780601f1061119d576101008083540402835291602001916111c8565b820191906000526020600020905b8154815290600101906020018083116111ab57829003601f168201915b505050505091509250925050915091565b60008282600260003373ffffffffffffffffffffffffffffffffffffffff1673ffffffffffffffffffffffffffffffffffffffff168152602001908152602001600020826005811061122757fe5b600f0201816005811061123657fe5b6003020160020160009054906101000a900460ff166112bd576040517f08c379a000000000000000000000000000000000000000000000000000000000815260040180806020018281038252601d8152602001807f6c6f636174696f6e20646f6573206e6f742068617665207370726f757400000081525060200191505060405180910390fd5b600280600160003373ffffffffffffffffffffffffffffffffffffffff1673ffffffffffffffffffffffffffffffffffffffff168152602001908152602001600020876005811061130a57fe5b600a0201866005811061131957fe5b60020201600001541614806113905750600280600160003373ffffffffffffffffffffffffffffffffffffffff1673ffffffffffffffffffffffffffffffffffffffff168152602001908152602001600020876005811061137657fe5b600a0201866005811061138557fe5b600202016001015416145b9250505092915050565b60008282600260003373ffffffffffffffffffffffffffffffffffffffff1673ffffffffffffffffffffffffffffffffffffffff16815260200190815260200160002082600581106113e857fe5b600f020181600581106113f757fe5b6003020160020160009054906101000a900460ff1661147e576040517f08c379a000000000000000000000000000000000000000000000000000000000815260040180806020018281038252601d8152602001807f6c6f636174696f6e20646f6573206e6f742068617665207370726f757400000081525060200191505060405180910390fd5b60006002600160003373ffffffffffffffffffffffffffffffffffffffff1673ffffffffffffffffffffffffffffffffffffffff16815260200190815260200160002087600581106114cc57fe5b600a020186600581106114db57fe5b6002020160010154816114ea57fe5b066002600160003373ffffffffffffffffffffffffffffffffffffffff1673ffffffffffffffffffffffffffffffffffffffff168152602001908152602001600020886005811061153757fe5b600a0201876005811061154657fe5b60020201600001548161155557fe5b0617119250505092915050565b60008079020000000000000000000000000000000000000000000000000090506000809050600060c990505b6101008110156116ae578283600160003373ffffffffffffffffffffffffffffffffffffffff1673ffffffffffffffffffffffffffffffffffffffff16815260200190815260200160002088600581106115e457fe5b600a020187600581106115f357fe5b600202016000015416141561161957611616600183612cf590919063ffffffff16565b91505b8283600160003373ffffffffffffffffffffffffffffffffffffffff1673ffffffffffffffffffffffffffffffffffffffff168152602001908152602001600020886005811061166557fe5b600a0201876005811061167457fe5b600202016001015416141561169a57611697600183612cf590919063ffffffff16565b91505b600183901c9250808060010191505061158e565b506116d96103706116cb62093a8084612d1190919063ffffffff16565b612cdc90919063ffffffff16565b6202a300039250505092915050565b6000600460008373ffffffffffffffffffffffffffffffffffffffff1673ffffffffffffffffffffffffffffffffffffffff168152602001908152602001600020549050919050565b611739611cff565b61174257600080fd5b600073ffffffffffffffffffffffffffffffffffffffff166000809054906101000a900473ffffffffffffffffffffffffffffffffffffffff1673ffffffffffffffffffffffffffffffffffffffff167f8be0079c531659141344cd1fd0a4f28419497f9722a3daafe3b4186f6b6457e060405160405180910390a360008060006101000a81548173ffffffffffffffffffffffffffffffffffffffff021916908373ffffffffffffffffffffffffffffffffffffffff160217905550565b60008282600260003373ffffffffffffffffffffffffffffffffffffffff1673ffffffffffffffffffffffffffffffffffffffff168152602001908152602001600020826005811061184f57fe5b600f0201816005811061185e57fe5b6003020160020160009054906101000a900460ff166118e5576040517f08c379a000000000000000000000000000000000000000000000000000000000815260040180806020018281038252601d8152602001807f6c6f636174696f6e20646f6573206e6f742068617665207370726f757400000081525060200191505060405180910390fd5b60007402000000000000000000000000000000000000000090506000809050600060a190505b60c9811015611a2a578283600160003373ffffffffffffffffffffffffffffffffffffffff1673ffffffffffffffffffffffffffffffffffffffff1681526020019081526020016000208a6005811061196057fe5b600a0201896005811061196f57fe5b600202016000015416141561199557611992600183612cf590919063ffffffff16565b91505b8283600160003373ffffffffffffffffffffffffffffffffffffffff1673ffffffffffffffffffffffffffffffffffffffff1681526020019081526020016000208a600581106119e157fe5b600a020189600581106119f057fe5b6002020160010154161415611a1657611a13600183612cf590919063ffffffff16565b91505b600183901c9250808060010191505061190b565b508094505050505092915050565b604051806040016040528060001515815260200160001515815250600360003373ffffffffffffffffffffffffffffffffffffffff1673ffffffffffffffffffffffffffffffffffffffff1681526020019081526020016000208560058110611a9d57fe5b600502018460058110611aac57fe5b0160008201518160000160006101000a81548160ff02191690831515021790555060208201518160000160016101000a81548160ff021916908315150217905550905050611b4461012c600460003373ffffffffffffffffffffffffffffffffffffffff1673ffffffffffffffffffffffffffffffffffffffff16815260200190815260200160002054612b7b90919063ffffffff16565b600460003373ffffffffffffffffffffffffffffffffffffffff1673ffffffffffffffffffffffffffffffffffffffff168152602001908152602001600020819055507f29673a2c4180cee02675c1aeac3253f75b8a067246770a77b079d48c92248cbd848484846040518085815260200184815260200183815260200182815260200194505050505060405180910390a150505050565b60008060009054906101000a900473ffffffffffffffffffffffffffffffffffffffff16905090565b60405180606001604052808281526020016000604051908082528060200260200182016040528015611c465781602001602082028038833980820191505090505b50815260200160011515815250600260003373ffffffffffffffffffffffffffffffffffffffff1673ffffffffffffffffffffffffffffffffffffffff1681526020019081526020016000208460058110611c9d57fe5b600f02018360058110611cac57fe5b60030201600082015181600001556020820151816001019080519060200190611cd6929190612f83565b5060408201518160020160006101000a81548160ff021916908315150217905550905050505050565b60008060009054906101000a900473ffffffffffffffffffffffffffffffffffffffff1673ffffffffffffffffffffffffffffffffffffffff163373ffffffffffffffffffffffffffffffffffffffff1614905090565b60008383600260003373ffffffffffffffffffffffffffffffffffffffff1673ffffffffffffffffffffffffffffffffffffffff1681526020019081526020016000208260058110611da457fe5b600f02018160058110611db357fe5b6003020160020160009054906101000a900460ff16611e3a576040517f08c379a000000000000000000000000000000000000000000000000000000000815260040180806020018281038252601d8152602001807f6c6f636174696f6e20646f6573206e6f742068617665207370726f757400000081525060200191505060405180910390fd5b6000611e58611e498888612b10565b86612b7b90919063ffffffff16565b90506000611e668888611562565b90506000611e748989612d48565b905081831115611efb57611e92601483612cdc90919063ffffffff16565b611ea58385612b7b90919063ffffffff16565b1015611eef57611ee56003611ed7600c611ec9607886612cf590919063ffffffff16565b612cdc90919063ffffffff16565b612cf590919063ffffffff16565b9550505050611f74565b60009550505050611f74565b6000831415611f105760009550505050611f74565b611f6e6003611f60611f2c600c86612d1190919063ffffffff16565b611f5287611f44607888612cf590919063ffffffff16565b612d1190919063ffffffff16565b612cdc90919063ffffffff16565b612cf590919063ffffffff16565b95505050505b50509392505050565b604051806040016040528060001515815260200160001515815250600360003373ffffffffffffffffffffffffffffffffffffffff1673ffffffffffffffffffffffffffffffffffffffff1681526020019081526020016000208560058110611fe257fe5b600502018460058110611ff157fe5b0160008201518160000160006101000a81548160ff02191690831515021790555060208201518160000160016101000a81548160ff0219169083151502179055509050507f29673a2c4180cee02675c1aeac3253f75b8a067246770a77b079d48c92248cbd848484846040518085815260200184815260200183815260200182815260200194505050505060405180910390a150505050565b80600460008473ffffffffffffffffffffffffffffffffffffffff1673ffffffffffffffffffffffffffffffffffffffff1681526020019081526020016000205401600460008473ffffffffffffffffffffffffffffffffffffffff1673ffffffffffffffffffffffffffffffffffffffff168152602001908152602001600020819055505050565b60008383600260003373ffffffffffffffffffffffffffffffffffffffff1673ffffffffffffffffffffffffffffffffffffffff168152602001908152602001600020826005811061216157fe5b600f0201816005811061217057fe5b6003020160020160009054906101000a900460ff166121f7576040517f08c379a000000000000000000000000000000000000000000000000000000000815260040180806020018281038252601d8152602001807f6c6f636174696f6e20646f6573206e6f742068617665207370726f757400000081525060200191505060405180910390fd5b6122018686612b10565b8403925050509392505050565b8282600260003373ffffffffffffffffffffffffffffffffffffffff1673ffffffffffffffffffffffffffffffffffffffff168152602001908152602001600020826005811061225a57fe5b600f0201816005811061226957fe5b6003020160020160009054906101000a900460ff166122f0576040517f08c379a000000000000000000000000000000000000000000000000000000000815260040180806020018281038252601d8152602001807f6c6f636174696f6e20646f6573206e6f742068617665207370726f757400000081525060200191505060405180910390fd5b60011515600260003373ffffffffffffffffffffffffffffffffffffffff1673ffffffffffffffffffffffffffffffffffffffff168152602001908152602001600020866005811061233e57fe5b600f0201856005811061234d57fe5b6003020160020160009054906101000a900460ff1615151415612479576000600260003373ffffffffffffffffffffffffffffffffffffffff1673ffffffffffffffffffffffffffffffffffffffff16815260200190815260200160002086600581106123b657fe5b600f020185600581106123c557fe5b6003020160020160006101000a81548160ff02191690831515021790555061243583600460003373ffffffffffffffffffffffffffffffffffffffff1673ffffffffffffffffffffffffffffffffffffffff16815260200190815260200160002054612cf590919063ffffffff16565b600460003373ffffffffffffffffffffffffffffffffffffffff1673ffffffffffffffffffffffffffffffffffffffff168152602001908152602001600020819055505b7fef9514e76636c86a9084470f65495ff78258053cada18c62136f204ff2f0daa28585604051808381526020018281526020019250505060405180910390a15050505050565b60008282600260003373ffffffffffffffffffffffffffffffffffffffff1673ffffffffffffffffffffffffffffffffffffffff168152602001908152602001600020826005811061250d57fe5b600f0201816005811061251c57fe5b6003020160020160009054906101000a900460ff166125a3576040517f08c379a000000000000000000000000000000000000000000000000000000000815260040180806020018281038252601d8152602001807f6c6f636174696f6e20646f6573206e6f742068617665207370726f757400000081525060200191505060405180910390fd5b600360003373ffffffffffffffffffffffffffffffffffffffff1673ffffffffffffffffffffffffffffffffffffffff16815260200190815260200160002085600581106125ed57fe5b6005020184600581106125fc57fe5b0160000160009054906101000a900460ff169250505092915050565b60008161262481610f8a565b612696576040517f08c379a000000000000000000000000000000000000000000000000000000000815260040180806020018281038252601a8152602001807f6974656d206d7573742062652076616c696420746f2063616c6c00000000000081525060200191505060405180910390fd5b600560003373ffffffffffffffffffffffffffffffffffffffff1673ffffffffffffffffffffffffffffffffffffffff16815260200190815260200160002083815481106126e057fe5b906000526020600020906004020160010154915050919050565b60008282600260003373ffffffffffffffffffffffffffffffffffffffff1673ffffffffffffffffffffffffffffffffffffffff168152602001908152602001600020826005811061274857fe5b600f0201816005811061275757fe5b6003020160020160009054906101000a900460ff166127de576040517f08c379a000000000000000000000000000000000000000000000000000000000815260040180806020018281038252601d8152602001807f6c6f636174696f6e20646f6573206e6f742068617665207370726f757400000081525060200191505060405180910390fd5b60006004905060008090506000600290505b602981101561290f578283600160003373ffffffffffffffffffffffffffffffffffffffff1673ffffffffffffffffffffffffffffffffffffffff1681526020019081526020016000208a6005811061284557fe5b600a0201896005811061285457fe5b600202016000015416141561287a57612877600183612cf590919063ffffffff16565b91505b8283600160003373ffffffffffffffffffffffffffffffffffffffff1673ffffffffffffffffffffffffffffffffffffffff1681526020019081526020016000208a600581106128c657fe5b600a020189600581106128d557fe5b60020201600101541614156128fb576128f8600183612cf590919063ffffffff16565b91505b600183901c925080806001019150506127f0565b508094505050505092915050565b612925611cff565b61292e57600080fd5b6103e8600460008373ffffffffffffffffffffffffffffffffffffffff1673ffffffffffffffffffffffffffffffffffffffff168152602001908152602001600020819055507f827446e550fe5bfd75ca44888adfeafa8fe5b5ea548deabda1ed8f5c08f2cf2281604051808273ffffffffffffffffffffffffffffffffffffffff1673ffffffffffffffffffffffffffffffffffffffff16815260200191505060405180910390a150565b6129e2611cff565b6129eb57600080fd5b6129f481612e8b565b50565b606060006060600560003373ffffffffffffffffffffffffffffffffffffffff1673ffffffffffffffffffffffffffffffffffffffff16815260200190815260200160002080549050604051908082528060200260200182016040528015612a6e5781602001602082028038833980820191505090505b509050600080905060008090505b600560003373ffffffffffffffffffffffffffffffffffffffff1673ffffffffffffffffffffffffffffffffffffffff16815260200190815260200160002080549050811015612b0357612acf81610f8a565b15612af65780838381518110612ae157fe5b60200260200101818152505081806001019250505b8080600101915050612a7c565b5081819350935050509091565b6000600260003373ffffffffffffffffffffffffffffffffffffffff1673ffffffffffffffffffffffffffffffffffffffff1681526020019081526020016000208360058110612b5c57fe5b600f02018260058110612b6b57fe5b6003020160000154905092915050565b600082821115612b8757fe5b818303905092915050565b6000806c20000000000000000000000000905060008090506000606590505b60a1811015612cd0578283600160003373ffffffffffffffffffffffffffffffffffffffff1673ffffffffffffffffffffffffffffffffffffffff1681526020019081526020016000208860058110612c0657fe5b600a02018760058110612c1557fe5b6002020160000154161415612c3b57612c38600183612cf590919063ffffffff16565b91505b8283600160003373ffffffffffffffffffffffffffffffffffffffff1673ffffffffffffffffffffffffffffffffffffffff1681526020019081526020016000208860058110612c8757fe5b600a02018760058110612c9657fe5b6002020160010154161415612cbc57612cb9600183612cf590919063ffffffff16565b91505b600183901c92508080600101915050612bb1565b50809250505092915050565b600080828481612ce857fe5b0490508091505092915050565b600080828401905083811015612d0757fe5b8091505092915050565b600080831415612d245760009050612d42565b6000828402905082848281612d3557fe5b0414612d3d57fe5b809150505b92915050565b60008065020000000000905060008090506000602990505b6065811015612e7f578283600160003373ffffffffffffffffffffffffffffffffffffffff1673ffffffffffffffffffffffffffffffffffffffff1681526020019081526020016000208860058110612db557fe5b600a02018760058110612dc457fe5b6002020160000154161415612dea57612de7600183612cf590919063ffffffff16565b91505b8283600160003373ffffffffffffffffffffffffffffffffffffffff1673ffffffffffffffffffffffffffffffffffffffff1681526020019081526020016000208860058110612e3657fe5b600a02018760058110612e4557fe5b6002020160010154161415612e6b57612e68600183612cf590919063ffffffff16565b91505b600183901c92508080600101915050612d60565b50809250505092915050565b600073ffffffffffffffffffffffffffffffffffffffff168173ffffffffffffffffffffffffffffffffffffffff161415612ec557600080fd5b8073ffffffffffffffffffffffffffffffffffffffff166000809054906101000a900473ffffffffffffffffffffffffffffffffffffffff1673ffffffffffffffffffffffffffffffffffffffff167f8be0079c531659141344cd1fd0a4f28419497f9722a3daafe3b4186f6b6457e060405160405180910390a3806000806101000a81548173ffffffffffffffffffffffffffffffffffffffff021916908373ffffffffffffffffffffffffffffffffffffffff16021790555050565b828054828255906000526020600020908101928215612fbf579160200282015b82811115612fbe578251825591602001919060010190612fa3565b5b509050612fcc9190612fd0565b5090565b612ff291905b80821115612fee576000816000905550600101612fd6565b5090565b9056fea265627a7a7231582060daf65d55b9abc00877e2604fe342b90aea0b3702cbb821991e191b9065bc6864736f6c63430005100032",
  "source": "pragma solidity ^0.5.0;\n\nimport \"./Ownable.sol\";\nimport \"./SafeMath.sol\";\n\n/*I design the DNA to have two strains(dna1, dna2 uint256), \n    The following is the representative of each gene (in LSB order)\n        0 -> seed yellow (dominant), green(recessive) [mendilan trait]\n        1 -> seed round (dominant), wrinkled(recessive) [mendilan trait]\n        2~40 -> whole color (from pale yellow to dark green) [polygenic trait]\n        41~100 ->  stem width [polygenic trait]\n        101~160 ->  stem height [polygenic trait]\n        161~200 -> productivity, the amount of generated seed [polygenetic trait]\n        201~255 ->  grow speed [polygenic trait]\n\n        *mendilan trait: \n        output is a bool= (bit1|bit2 == 1), recessive trait=false, domminent trait= True\n        *polygenetic trait:\n        output is uint8, represent the amount of 1 among the corresponding bits\n        \nAbout Traits: \n     height(uint): the full grown height of height gene=0 is 60 cm, gene=120 is 180 cm (born with height =0)\n     width(uint): the full grown width of width gene=0 is 10 mm, gene=120 is 20 mm (born with width =3)\n     color(uint):  0 ~ 78\n     It take 2 days to reach full grown for speed gene=0, a quarter day for speed gene = 110\n     (though the actual game won't be that long because we'd like to plug it up before the sprout get too green and stiff)\n     productivity: the amount of seed produced for produce_gen=0 is 10, for produce_gen= 80 is 50\n     mendilan trait(bool): directly return the bool \n\nAbout Growing:\n    1. before the reaching 10% of full growth, the seed would shown, but slowly sinking into ground\n        (it's the perfect time to plug the sprout!, giving true for sprout stage (bool))\n    2. the color I guess should be turning greener and greener (though I don't really know how to design this part) \n    3. all the growing before full grown is linear\n    4. after full grown, it use 5% of the full grown time to die off, all the other feature would remain same in this period\n    5. The bean can only be planted at (x, y) where 0 <= x <5, 0 <= y < 5\n    6. You can start to have seed after 1.02 full grown time\n    7. you can pollen in 1 ~ 1.02 full grown time, the amount of pollen for all beanstalks are always 10\n    8. you can pollenize in 1.01 ~1.02 full grown time\n\nAbout price:\n    1. plug a non-sprout stage bean stalk get $10\n    2. plug a dying stage bean stalk get $5\n    3. a sprout's price = height*width//(color//4 + 1)\n    4. price +5 if bean is round\n    5. price +5 if bean is yellow  \n\n\n\nNotes:\n    1. The reason I have such a lengthy design for the whole bean lifespan is because I originally thought of designing the \n        feature of the whole reproducing process and maybe cultivate or trading seeds(which I don't really know if we have time for)\n        If it would be implemented, there's definately more parameter to be set.\n    3. I'm also thinking of some level up species could be represented as mendilen trait\n        (which would be always 1/0 before reaching a certain level)\n    4. In addition to the current polygene traits, I'm also consider adding some other such as disease resistence, productivity, etc.\n    5. Feel free to let me know if you think any design is impractical or what parameter is wierd or any other helpful advice :)\n\nUpdates:\n    1. the getSproutLook function is substitute with getColor, getSproutHeight, getSproutWidth, getSproutPrice,\n    getSeedYellow, getSeedRound. Each of these functions is a view public function, which must be workable in \n    without using Event feature.\n    2. The cost of the randomAdd is $300\n\n    \n*/\ncontract Sprout is Ownable {\n\n  using SafeMath for uint256;\n\n  event OnAdd(uint x_id, uint y_id, uint dna1, uint dna2);\n  event OnPlug(uint x_id, uint y_id);\n  event OnItemAdded(uint Id);\n  event OnItemDeleted(uint Id);\n  event OnRegister(address account);\n  //events for debug usage\n  event debugStage(uint s);\n  \n  \n  struct sprout_dna {\n    uint dna1;\n    uint dna2;\n  }\n  struct sproutt {\n    uint planttime;\n    uint[] pollen;\n    bool isset;\n  }\n  struct plugging {\n    bool seed_plug;\n    bool pollen_plug;\n  }\n  struct Item {\n    string itemName;\n    uint num;\n    uint[] content;\n    bool isValid;\n  }\n  \n  // the mappings\n  mapping (address => sprout_dna[5][5]) sprout_list_dna;\n  mapping (address => sproutt[5][5]) sprout_list_t;\n  mapping (address => plugging[5][5]) sprout_list_plugging;\n  mapping (address => uint) balance;//account\n  mapping (address => Item[]) _ItemList;\n  \n  // the modifiers\n  modifier SproutExist(uint x_id, uint y_id){\n    require(sprout_list_t[msg.sender][x_id][y_id].isset, \"location does not have sprout\");\n    _;\n  }\n  modifier EnoughBuySeed(){\n    require(balance[msg.sender]> 300, \"not enough money to buy random seed\");\n    _;\n  }\n  modifier SeedExist(uint x_id, uint y_id, uint time){\n    uint now_stage = time.sub(getPlantTime(x_id, y_id));\n    uint fullgrown_time = getFullGrownTime(x_id, y_id);\n    require(now_stage > fullgrown_time.mul(102).div(100), \"too early to have seeds\");\n    require(!sprout_list_plugging[msg.sender][x_id][y_id].seed_plug, \"the seeds are already plugged.\");\n    _;\n  }\n  modifier PollenExist(uint x_id, uint y_id, uint time){\n    uint now_stage = time.sub(getPlantTime(x_id, y_id));\n    uint fullgrown_time = getFullGrownTime(x_id, y_id);\n    require(now_stage > fullgrown_time, \"too early to have pollen\");\n    require(now_stage < fullgrown_time.mul(102).div(100), \"too late to have pollen\");\n    require(!sprout_list_plugging[msg.sender][x_id][y_id].pollen_plug, \"the pollen are already plugged.\");\n    _;\n  }\n  modifier PollenizeReady(uint x_id, uint y_id, uint time){\n    uint now_stage = time.sub(getPlantTime(x_id, y_id));\n    uint fullgrown_time = getFullGrownTime(x_id, y_id);\n    require(now_stage > fullgrown_time.mul(101).div(100), \"too early to have pollen\");\n    require(now_stage < fullgrown_time.mul(102).div(100), \"too late to have pollen\");\n    _;\n  }\n  modifier isValidItem(uint _Id) {\n      require(isItemValid(_Id), \"item must be valid to call\");\n      _;\n  }\n  modifier isSeedItem(uint _Id){\n      uint temp1 = uint(keccak256(abi.encodePacked(_ItemList[msg.sender][_Id].itemName)));\n      uint temp2 = uint(keccak256(abi.encodePacked(\"seed\")));\n      require(temp1 == temp2, \"not a seed item\");\n      _;\n  }\n  modifier isPollenItem(uint _Id){\n      uint temp1 = uint(keccak256(abi.encodePacked(_ItemList[msg.sender][_Id].itemName)));\n      uint temp2 = uint(keccak256(abi.encodePacked(\"pollen\")));\n      require(temp1 == temp2, \"not a pollen item\");\n      _;\n  }\n\n\n\n//get TRAITS\n  function getFullGrownTime(uint x_id, uint y_id) public view returns(uint){\n    uint point = 2**201;\n    uint speed_gen = 0;\n    for (uint i =201; i <256; i++){\n        if (((sprout_list_dna[msg.sender][x_id][y_id].dna1) & point) == point){speed_gen = speed_gen.add(1);}\n        if (((sprout_list_dna[msg.sender][x_id][y_id].dna2) & point) == point){speed_gen = speed_gen.add(1);}\n        point = point >> 1;\n    }\n    return (2 days) - (speed_gen.mul(7 days).div(880));\n  }\n  function getPlantTime(uint x_id,  uint y_id) internal view returns(uint){\n    return sprout_list_t[msg.sender][x_id][y_id].planttime;\n  }\n  function getHeightGene(uint x_id, uint y_id) internal view returns(uint){\n    uint point = 2**101;\n    uint height_gen = 0;\n    for (uint i =101; i <161; i++){\n        if (((sprout_list_dna[msg.sender][x_id][y_id].dna1) & point) == point){height_gen = height_gen.add(1);}\n        if (((sprout_list_dna[msg.sender][x_id][y_id].dna2) & point) == point){height_gen = height_gen.add(1);}\n        point = point >> 1;\n    }\n    return height_gen;\n  }\n  function getWidthGene(uint x_id, uint y_id) internal view returns(uint){\n    uint point = 2**41;\n    uint width_gen = 0;\n    for (uint i =41; i <101; i++){\n        if (((sprout_list_dna[msg.sender][x_id][y_id].dna1) & point) == point){width_gen = width_gen.add(1);}\n        if (((sprout_list_dna[msg.sender][x_id][y_id].dna2) & point) == point){width_gen = width_gen.add(1);}\n        point = point >> 1;\n    }\n    return width_gen;\n  }\n  // The following traits could be seen from the players\n  function getGrownTime(uint x_id, uint y_id, uint time) public view SproutExist(x_id, y_id) returns(uint){\n    return (time-getPlantTime(x_id, y_id));\n  }\n  function getProduceGene(uint x_id, uint y_id) public view SproutExist(x_id, y_id) returns(uint){\n    uint point = 2**161;\n    uint produce_gen = 0;\n    for (uint i =161; i <201; i++){\n        if (((sprout_list_dna[msg.sender][x_id][y_id].dna1) & point) == point){produce_gen = produce_gen.add(1);}\n        if (((sprout_list_dna[msg.sender][x_id][y_id].dna2) & point) == point){produce_gen = produce_gen.add(1);}\n        point = point >> 1;\n    }\n    return produce_gen;\n  }\n  function getSeedPlug(uint x_id, uint y_id)  public view SproutExist(x_id, y_id) returns(bool){\n    return sprout_list_plugging[msg.sender][x_id][y_id].seed_plug;\n  }\n  function getSeedRound(uint x_id, uint y_id) public view SproutExist(x_id, y_id) returns(bool){\n    return (((sprout_list_dna[msg.sender][x_id][y_id].dna1)&2== 2) || ((sprout_list_dna[msg.sender][x_id][y_id].dna2)&2 == 2));\n  }\n  function getSeedYellow(uint x_id, uint y_id) public view SproutExist(x_id, y_id) returns(bool){\n    return  (((sprout_list_dna[msg.sender][x_id][y_id].dna1%2) | (sprout_list_dna[msg.sender][x_id][y_id].dna2%2)) > 0);\n  }\n  function getColor(uint x_id, uint y_id) public view SproutExist(x_id, y_id) returns(uint){\n    uint point = 2**2;\n    uint color = 0;\n    for (uint i =2; i <41; i++){\n        if (((sprout_list_dna[msg.sender][x_id][y_id].dna1) & point) == point){color = color.add(1);}\n        if (((sprout_list_dna[msg.sender][x_id][y_id].dna2) & point) == point){color = color.add(1);}\n        point = point >> 1;\n    }\n    return color;\n  }\n  function getSproutHeight( uint x_id, uint y_id, uint time) public view SproutExist(x_id, y_id) returns(uint){\n      uint now_stage = time.sub(getPlantTime(x_id, y_id));\n      uint fullgrown_time = getFullGrownTime(x_id, y_id);\n      uint height_gen =  getHeightGene(x_id, y_id);\n      if(now_stage > fullgrown_time) {\n        if((now_stage.sub(fullgrown_time)) < fullgrown_time.div(20)) {//before death\n          return height_gen.add(60);\n        } else{ return 0;} \n      }else{\n        if(now_stage==0){ return 0;\n        } else{\n           return (height_gen.add(60)).mul(now_stage).div(fullgrown_time);}\n      }\n  }\n  function getSproutWidth( uint x_id, uint y_id, uint time) public view SproutExist(x_id, y_id) returns(uint){\n    uint now_stage = time.sub(getPlantTime(x_id, y_id));\n    uint fullgrown_time = getFullGrownTime(x_id, y_id);\n    uint width_gen =getWidthGene(x_id, y_id);\n      if(now_stage > fullgrown_time) {\n            if((now_stage.sub(fullgrown_time)) < fullgrown_time.div(20)) {//before death\n              return (width_gen.add(120)).div(12).add(3);\n            } else{ return 0;} \n        }\n        else{\n            if(now_stage==0){ return 0;\n            } else{\n              return (width_gen.add(120)).mul(now_stage).div(fullgrown_time.mul(12)).add(3);}\n        }\n  }\n  function getSproutPrice( uint now_stage, uint fullgrown_time, uint height, uint width, uint x_id, uint y_id) \n    public view SproutExist(x_id, y_id) returns(uint){\n      uint color = getColor(x_id, y_id);\n      bool seed_yellow = getSeedYellow(x_id, y_id);\n      bool seed_round = getSeedRound(x_id, y_id);\n      if(now_stage > fullgrown_time) {\n            if((now_stage.sub(fullgrown_time)) < fullgrown_time.div(20)) {//before death\n              return 5;\n            } else{ return 0;} \n        }\n        else{\n            if(now_stage==0){ return 2;\n            } else{\n              uint price= height.mul(width).div(color.div(4).add(1));\n              if(seed_round){ price.add(5);}\n              if(seed_yellow){ price.add(5);}\n              return price;\n            }\n        }\n  }\n    \n\n\n  \n  /*function addSprout(uint x_id, uint y_id, uint dna1, uint dna2, uint time) internal  {\n    //sprout_list[msg.sender][x_id][y_id] = sprout(dna1, dna2, now, 0, new uint[](0), true, false, false);\n    //sprout_list_dna[msg.sender][x_id][y_id] = sprout_dna(dna1, dna2);\n    sprout_list_t[msg.sender][x_id][y_id] = sproutt(time, new uint[](0), true);\n    //sprout_list_plugging[msg.sender][x_id][y_id] = plugging(false, false);\n    emit OnAdd(x_id, y_id, dna1, dna2);\n  }*/\n\n  function addSprout1(uint x_id, uint y_id, uint dna1, uint dna2) public {\n    sprout_list_dna[msg.sender][x_id][y_id] = sprout_dna(dna1, dna2);\n  }\n\n  function addSprout2(uint x_id, uint y_id, uint time) public {\n    sprout_list_t[msg.sender][x_id][y_id] = sproutt(time, new uint[](0), true);\n  }\n\n  function addSprout3(uint x_id, uint y_id, uint dna1, uint dna2) public {\n    sprout_list_plugging[msg.sender][x_id][y_id] = plugging(false, false);\n    balance[msg.sender] = balance[msg.sender].sub(300);\n    emit OnAdd(x_id, y_id, dna1, dna2);\n  }\n\n  function addSprout4plantSeed(uint x_id, uint y_id, uint dna1, uint dna2) public {\n    sprout_list_plugging[msg.sender][x_id][y_id] = plugging(false, false);\n    emit OnAdd(x_id, y_id, dna1, dna2);\n  }\n  // plant a sprout with random dna  cost $300\n  /*function randomAddSprout(uint x_id, uint y_id) public EnoughBuySeed(){\n    /*uint dna1 = uint(keccak256(abi.encodePacked(block.timestamp, block.difficulty)));\n    uint dna2 = uint(keccak256(abi.encodePacked(block.difficulty, block.timestamp)));\n    addSprout(x_id, y_id, dna1, dna2);\n    addSprout(x_id, y_id, 2**256-2**40, 2**256-2**40);//for testing\n    balance[msg.sender] = balance[msg.sender].sub(300);\n  }*/\n    \n  function plugSprout(uint x_id, uint y_id, uint price) public SproutExist(x_id, y_id){\n      if(sprout_list_t[msg.sender][x_id][y_id].isset == true){\n        sprout_list_t[msg.sender][x_id][y_id].isset = false;\n        balance[msg.sender] = balance[msg.sender].add(price);\n      }\n      emit OnPlug(x_id, y_id);\n  }\n\n  function balanceOf(address account) public view returns (uint256) {\n        return balance[account];\n  }\n  function transfer(address account, uint amount) public{\n        balance[account] = balance[account]+amount;\n  }\n\n  // when a player enter the game, he or she should be registered by the contract owner (us) first\n  function Register(address new_player) public onlyOwner(){\n        balance[new_player] = 1000;\n        emit OnRegister(new_player);\n    }\n    //when you plug the pollen from a beanstalk, it's immediately add to your item list\n    /*function PlugPollen(uint x_id, uint y_id) public SproutExist(x_id, y_id) PollenExist(x_id, y_id){\n        sprout_list_plugging[msg.sender][x_id][y_id].pollen_plug = true;\n        addItem(\"pollen\", 10, new uint[](0));\n        uint _Id = _ItemList[msg.sender].length -1;\n        _ItemList[msg.sender][_Id].content.push(sprout_list_dna[msg.sender][x_id][y_id].dna1);\n        _ItemList[msg.sender][_Id].content.push(sprout_list_dna[msg.sender][x_id][y_id].dna2);\n    }\n    // The seed Items could be used to plant a new sprout at (x_id, y_id)\n    function UsePollenItem(uint x_id, uint y_id, uint _Id) public \n    isValidItem(_Id) isPollenItem( _Id) SproutExist(x_id, y_id) PollenizeReady(x_id, y_id){\n        if(!sprout_list_plugging[msg.sender][x_id][y_id].pollen_plug){\n            sprout_list_t[msg.sender][x_id][y_id].pollen.push(sprout_list_dna[msg.sender][x_id][y_id].dna1);\n            sprout_list_t[msg.sender][x_id][y_id].pollen.push(sprout_list_dna[msg.sender][x_id][y_id].dna2);\n        }\n        sprout_list_t[msg.sender][x_id][y_id].pollen.push(_ItemList[msg.sender][_Id].content[0]);\n        sprout_list_t[msg.sender][x_id][y_id].pollen.push(_ItemList[msg.sender][_Id].content[1]);\n    }\n\n\n    //when you plug the seeds from a beanstalk, it's immediately add to your item list\n    function PlugSeed(uint x_id, uint y_id) public SproutExist(x_id, y_id) SeedExist(x_id, y_id){\n        sprout_list_plugging[msg.sender][x_id][y_id].seed_plug = true;\n        uint num = getProduceGene(x_id, y_id).div(2).add(10);\n        addItem(\"seed\", num, new uint[](0));\n        uint _Id = _ItemList[msg.sender].length -1;\n        _ItemList[msg.sender][_Id].content.push(sprout_list_dna[msg.sender][x_id][y_id].dna1);\n        _ItemList[msg.sender][_Id].content.push(sprout_list_dna[msg.sender][x_id][y_id].dna2);\n        if(!sprout_list_plugging[msg.sender][x_id][y_id].pollen_plug){\n            _ItemList[msg.sender][_Id].content.push(sprout_list_dna[msg.sender][x_id][y_id].dna1);\n            _ItemList[msg.sender][_Id].content.push(sprout_list_dna[msg.sender][x_id][y_id].dna2);\n        }\n        uint len = sprout_list_t[msg.sender][x_id][y_id].pollen.length;\n        for (uint i=0; i < len ; i++){\n            _ItemList[msg.sender][_Id].content.push(sprout_list_t[msg.sender][x_id][y_id].pollen[i]);\n        }\n    }\n    // The seed Items could be used to plant a new sprout at (x_id, y_id)\n    function UseSeedItem(uint x_id, uint y_id, uint _Id) public isValidItem(_Id) isSeedItem( _Id){\n        uint num = (_ItemList[msg.sender][_Id].content.length.div(2)).sub(1);\n        uint num_f = uint(keccak256(abi.encodePacked(block.timestamp))) % (num);\n        uint rand_m = uint(keccak256(abi.encodePacked(block.timestamp, block.difficulty)));\n        uint rand_f = uint(keccak256(abi.encodePacked(block.difficulty, block.timestamp)));\n        uint dna1 = rand_m & (_ItemList[msg.sender][_Id].content[0]);\n        dna1 = dna1.add(~rand_m & (_ItemList[msg.sender][_Id].content[1]));\n        uint dna2 = rand_f & (_ItemList[msg.sender][_Id].content[num_f.mul(2).add(2)]);\n        dna2 = dna2.add(~rand_f & (_ItemList[msg.sender][_Id].content[num_f.mul(2).add(3)]));\n        addSprout(x_id, y_id, dna1, dna2);\n        spendItem(_Id, 1);\n    }*/\n    //Basic functions for showing list\n    function isItemValid(uint _Id) public view returns(bool isValid) {\n        return _ItemList[msg.sender][_Id].isValid;\n    }\n    function getItemNum(uint _Id) public view isValidItem(_Id) returns(uint) {\n        return _ItemList[msg.sender][_Id].num;\n    }\n    function getItem(uint _Id) public view isValidItem(_Id) returns(string memory, uint) {\n        return (_ItemList[msg.sender][_Id].itemName, _ItemList[msg.sender][_Id].num);\n    }\n\n    function getItemList() public view returns(uint[] memory, uint[] memory) {\n        uint len;\n        uint[] memory valids;\n\n        (valids, len) = _getValidItems();\n\n        uint[] memory ids = new uint[](len);\n        uint[] memory nums = new uint[](len);\n        for (uint i = 0; i < len; i++) {\n            uint id = valids[i];\n            ids[i] = id;\n            nums[i] = _ItemList[msg.sender][id].num;\n        }\n        return (ids, nums);\n    }\n\n\n\n    // private function\n    // add all kinds of Item in general\n    function addItem(string memory itemName, uint num, uint[] memory content) internal {\n        Item memory item = Item(itemName, num, content, true);\n        uint Id = _ItemList[msg.sender].push(item) - 1;\n\n        emit OnItemAdded(Id);\n    }\n    //remove some number of the Item\n    function spendItem(uint _Id, uint num) internal isValidItem(_Id){\n        require(num <= getItemNum(_Id), \"not enough item\");\n        if (num == getItemNum(_Id)){deleteItem(_Id);}\n        else{_ItemList[msg.sender][_Id].num -= num;}\n    }\n    // remove the whole Item\n    function deleteItem(uint _Id) internal isValidItem(_Id) {\n        _ItemList[msg.sender][_Id].isValid = false;\n\n        emit OnItemDeleted(_Id);\n    }\n\n    function _getValidItems() private view returns(uint[] memory valids, uint length) {\n        uint[] memory validItems = new uint[](_ItemList[msg.sender].length);\n        uint count = 0;\n        for (uint i = 0; i < _ItemList[msg.sender].length; i++) {\n            if (isItemValid(i)) {\n                validItems[count] = i;\n                count++;\n            }\n        }\n        return(validItems, count);\n    }\n}\n\n",
  "sourcePath": "/Users/vivi/Documents/1082/ui_contract/src/contracts/Sprout.sol",
  "compiler": {
    "name": "solc",
    "version": "0.5.16+commit.9c3226ce.Emscripten.clang"
  },
  "schemaVersion": "3.1.0",
  "updatedAt": "2020-06-21T15:36:58.553Z",
  "networkType": "ethereum",
  "devdoc": {
    "methods": {
      "isOwner()": {
        "return": "true if `msg.sender` is the owner of the contract."
      },
      "owner()": {
        "return": "the address of the owner."
      },
      "renounceOwnership()": {
        "details": "Allows the current owner to relinquish control of the contract."
      },
      "transferOwnership(address)": {
        "details": "Allows the current owner to transfer control of the contract to a newOwner.",
        "params": {
          "newOwner": "The address to transfer ownership to."
        }
      }
    }
  },
  "userdoc": {
    "methods": {
      "renounceOwnership()": {
        "notice": "Renouncing to ownership will leave the contract without an owner. It will not be possible to call the functions with the `onlyOwner` modifier anymore."
      }
    }
  }
}