{
  "contractName": "TodoList",
  "abi": [
    {
      "constant": true,
      "inputs": [],
      "name": "getResult",
      "outputs": [
        {
          "internalType": "uint256",
          "name": "product",
          "type": "uint256"
        },
        {
          "internalType": "uint256",
          "name": "sum",
          "type": "uint256"
        }
      ],
      "payable": false,
      "stateMutability": "view",
      "type": "function"
    },
    {
      "constant": true,
      "inputs": [],
      "name": "SayHello",
      "outputs": [
        {
          "internalType": "string",
          "name": "",
          "type": "string"
        }
      ],
      "payable": false,
      "stateMutability": "view",
      "type": "function"
    }
  ],
  "bytecode": "0x60806040526000805534801561001457600080fd5b50610366806100246000396000f3fe608060405234801561001057600080fd5b50600436106100365760003560e01c80633acb31501461003b578063de292789146100be575b600080fd5b6100436100e3565b6040518080602001828103825283818151815260200191508051906020019080838360005b83811015610083578082015181840152602081019050610068565b50505050905090810190601f1680156100b05780820380516001836020036101000a031916815260200191505b509250505060405180910390f35b6100c66101c3565b604051808381526020018281526020019250505060405180910390f35b60606101be6040518060400160405280600681526020017f48656c6c6f20000000000000000000000000000000000000000000000000000081525060018054600181600116156101000203166002900480601f0160208091040260200160405190810160405280929190818152602001828054600181600116156101000203166002900480156101b45780601f10610189576101008083540402835291602001916101b4565b820191906000526020600020905b81548152906001019060200180831161019757829003601f168201915b50505050506101e8565b905090565b6000806000600190506000600290508082029350808201925083839350935050509091565b6060808390506060839050606081518351016040519080825280601f01601f19166020018201604052801561022c5781602001600182028038833980820191505090505b5090506060819050600080905060008090505b85518110156102ad5785818151811061025457fe5b602001015160f81c60f81b83838060010194508151811061027157fe5b60200101907effffffffffffffffffffffffffffffffffffffffffffffffffffffffffffff1916908160001a905350808060010191505061023f565b5060008090505b8451811015610322578481815181106102c957fe5b602001015160f81c60f81b8383806001019450815181106102e657fe5b60200101907effffffffffffffffffffffffffffffffffffffffffffffffffffffffffffff1916908160001a90535080806001019150506102b4565b5081955050505050509291505056fea265627a7a723158202d534de5d2dc4bb90ef11036fd38f8fe069377ba574a3992cc5b00d9668289b564736f6c63430005100032",
  "source": "pragma solidity ^0.5.0;\n\ncontract TodoList {\n  uint taskCount = 0;\n  string message;\n  function getResult() public view returns(uint product, uint sum){\n      uint a = 1; // local variable\n      uint b = 2;\n      product = a * b;\n      sum = a + b; \n      \n      return (product, sum);\n   }\n\n  function strConcat(string memory _a, string memory _b) internal pure returns (string memory){\n    bytes memory _ba = bytes(_a);\n    bytes memory _bb = bytes(_b);\n    string memory _c = new string(_ba.length + _bb.length);\n    bytes memory _bc = bytes(_c);\n    uint k = 0;\n    for (uint i = 0; i < _ba.length; i++) _bc[k++] = _ba[i];\n    for (uint i = 0; i < _bb.length; i++) _bc[k++] = _bb[i];\n    return string(_bc);\n  }\n  function SayHello() public view returns (string memory) {\n    return strConcat(\"Hello \", message);\n  }\n}",
  "sourcePath": "/Users/vivi/Documents/1082/ui_contract/src/contracts/TodoLIst.sol",
  "compiler": {
    "name": "solc",
    "version": "0.5.16+commit.9c3226ce.Emscripten.clang"
  },
  "schemaVersion": "3.1.0",
  "updatedAt": "2020-06-23T03:38:47.526Z",
  "networkType": "ethereum",
  "devdoc": {
    "methods": {}
  },
  "userdoc": {
    "methods": {}
  }
}